:020000040800F2
:100000008011002015020008C93E0008B12900082F
:10001000C53E0008C10500088D4B00080000000027
:100020000000000000000000000000009D460008E5
:10003000C505000800000000954500089F4600081F
:100040002F0200082F0200082F0200082F020008CC
:100050002F0200082F0200082F0200082F020008BC
:100060002F0200082F0200082F0200082F020008AC
:100070002F0200082F0200082F0200082F0200089C
:100080002F0200082F0200082F0200082F0200088C
:100090002F0200082F0200082F0200082F0200087C
:1000A0002F0200082F0200082F0200082F0200086C
:1000B0002F0200082F0200082F0200082F0200085C
:1000C0002F020008B52900082F0200082F0200089F
:1000D0002F0200082F0200083D4B00082F020008E5
:1000E0002F0200082F0200082F0200082F0200082C
:1000F0002F0200082F0200082F0200082F0200081C
:100100002F0200082F0200082F0200082F0200080B
:10011000CD4700082F0200081147000821470008BA
:100120002F0200082F0200082F0200082F020008EB
:1001300000F002F800F05FF80AA090E8000C82449A
:100140008344AAF10107DA4501D100F054F8AFF277
:10015000090EBAE80F0013F0010F18BFFB1A43F0A5
:10016000010318479C640000BC6400000A444FF07F
:10017000000C10F8013B13F0070408BF10F8014B06
:100180001D1108BF10F8015B641E05D010F8016B4B
:10019000641E01F8016BF9D113F0080F1EBF10F8AF
:1001A000014BAD1C0C1B09D16D1E58BF01F801CBD2
:1001B000FAD505E014F8016B01F8016B6D1EF9D555
:1001C0009142D6D37047000000230024002500266A
:1001D000103A28BF78C1FBD8520728BF30C148BFAA
:1001E0000B607047642900F07780002070471FB5CE
:1001F0001FBD10B510BD00F0B1F91146FFF7F7FFB4
:1002000004F08CFD00F0CFF903B4FFF7F2FF03BC5C
:1002100004F0DAFC0948804709480047FEE7FEE79A
:10022000FEE7FEE7FEE7FEE7FEE7FEE7FEE7FEE7A6
:1002300004480549054A064B704700000D47000871
:1002400031010008800B002080110020800D00206B
:10025000800D0020704700000FB4044910B503AAB8
:10026000029800F04DF910BC5DF814FBA4020020C8
:100270002DE9F0410E460446002020622046E16848
:10028000884730B3252805D0D4E901219047206A5A
:10029000401CF2E7E168204600278847050018D097
:1002A000A5F14100192802D820354FF400673246E5
:1002B000294620462760FFF795FF40B1012804D06A
:1002C000F61D26F007060836D8E7361DD6E728467D
:1002D000DAE7206ABDE8F0812DE9F0410646002406
:1002E00010687529314616A510D0AFF3008000289C
:1002F00002DA404213A507E031688A0701D512A54A
:1003000002E0490704D511A5012401E0AFF3008004
:1003100000210A2206F1240709E0B0FBF2FCB0FB41
:10032000F2F302FB1C00303078541846491C0028B8
:10033000F3D123462A463046BDE8F04100F087B8A5
:10034000000000002D0000002B0000002000000035
:1003500010B5203AC0F00B80B1E81850203AA0E860
:100360001850B1E81850A0E81850BFF4F5AF5FEA94
:10037000027C24BFB1E81850A0E8185044BF18C947
:1003800018C0BDE810405FEA827C24BF51F8043BEE
:1003900040F8043B08BF7047D20728BF31F8023B42
:1003A00048BF11F8012B28BF20F8023B48BF00F8D6
:1003B000012B70474FF000020429C0F0128010F0AA
:1003C000030C00F01B80CCF1040CBCF1020F18BF31
:1003D00000F8012BA8BF20F8022BA1EB0C0100F0C4
:1003E0000DB85FEAC17C24BF00F8012B00F8012B97
:1003F00048BF00F8012B70474FF0000200B51346CC
:1004000094469646203922BFA0E80C50A0E80C5034
:10041000B1F12001BFF4F7AF090728BFA0E80C50E5
:1004200048BF0CC05DF804EB890028BF40F8042BDE
:1004300008BF704748BF20F8022B11F0804F18BF4B
:1004400000F8012B704770477047704770472DE9DF
:10045000F0470D4699469246044600F1240801688B
:10046000880604D5E06921F01001216000E0012038
:10047000A84201DD471B00E00027A1697A1902EBC1
:100480000900081AA0612078C00602D42046AFF304
:100490000080002608E0D4E901211AF80600904700
:1004A000206A401C761C20624E45F4DB2078C00692
:1004B0000AD52046AFF3008006E0D4E901213020C0
:1004C0009047206A401C2062381EA7F10107F4DC27
:1004D00007E0D4E9012118F805009047206A401C84
:1004E0002062281EA5F10105F3DC2046AFF3008051
:1004F0002078000602D50220BDE8F0870120FBE746
:10050000074B70B50D467B4400F011F804462846B1
:1005100000F020F810B14FF0FF3070BD204670BDE4
:10052000F747000001694A1C02610878704700B56E
:100530008FB0CDE901310021059105497944CDE91C
:10054000031011466846FFF793FE0FB000BD000090
:10055000E5FFFFFF007B00F080007047754600F06C
:100560002BF8AE4605006946534620F00700854645
:1005700018B020B5FFF75CFEBDE820404FF0000644
:100580004FF000074FF000084FF0000B21F007017B
:10059000AC46ACE8C009ACE8C009ACE8C009ACE8BE
:1005A000C0098D46704710B50446AFF30080204661
:1005B000BDE81040FFF728BE00487047200B002020
:1005C00000BFFEE7704772B600BFFEE7014600229B
:1005D00091F82100022808D00420886300BF002081
:1005E00081F8200000BF012070470868006820F0F3
:1005F0000E000B6818600868006820F001000B68A6
:10060000186091F8403001209840CB6B5860012071
:1006100081F8210000BF002081F8200000BF1046B3
:10062000E2E7000070B50446002594F82100022896
:1006300003D00420A0630125C1E02068006820F0F9
:100640000E00216808602068006820F00100216821
:1006500008605C492068884252D95A497839206834
:10066000884201D1012047E0564964392068884218
:1006700001D1102040E0534950392068884201D10F
:10068000801539E04F493C392068884201D18014F7
:1006900032E04C4928392068884202D14FF480303A
:1006A0002AE0484914392068884202D14FF480106A
:1006B00022E044492068884201D140041CE04249BC
:1006C0002068884201D1012016E03F49143120689A
:1006D000884201D110200FE03B4928312068884230
:1006E00001D1801508E038493C312068884201D1A9
:1006F000801401E04FF480303349091F086051E055
:10070000304978392068884201D1012047E02D49DD
:1007100064392068884201D1102040E029495039CD
:100720002068884201D1801539E026493C3920688B
:10073000884201D1801432E0224928392068884259
:1007400002D14FF480302AE01E49143920688842D3
:1007500002D14FF4801022E01A492068884201D16A
:1007600040041CE018492068884201D1012016E0AD
:10077000154914312068884201D110200FE0124938
:1007800028312068884201D1801508E00E493C31AB
:100790002068884201D1801401E04FF4803009497B
:1007A00080394860012084F8210000BF002084F8CF
:1007B000200000BF606B10B12046616B884728465F
:1007C00070BD00008000024008040240014691F81C
:1007D0002100704770B5044600F0C8F9064625466A
:1007E000681C10B104480078054400BF00F0BEF951
:1007F000801BA842FAD370BDB00200202DE9F84753
:10080000024600239C467BE14FF0010808FA03F4FE
:10081000D1F8008008EA0400A0427DD1DFF8F4A2FC
:10082000D1F80480A8EB0A09D0453AD014DCB8F11D
:10083000030F50D009DCB8F1000F31D0B8F1010F2F
:100840001CD0B8F1020F49D120E0B8F1110F18D037
:10085000B8F1120F42D11EE0B9F5881F25D006DC91
:10086000B9F5803F20D0B9F5801F37D11AE0B9F52E
:10087000001F18D0B9F5041F30D117E0D1F80CC013
:100880002DE0D1F80C8008F1040C28E0D1F80C80A0
:1008900008F1080C23E0D1F80C8008F10C0C1EE0E4
:1008A00000BF00BF00BF00BF00BF00BFD1F808807D
:1008B000B8F1000F02D14FF0040C0BE0D1F8088022
:1008C000B8F1010F03D14FF0080C146102E04FF0B2
:1008D000080C546103E04FF0000C00E000BF00BFC3
:1008E000FF2801D8904601E002F104084646FF289F
:1008F00002D84FEA830803E0A3F108084FEA88080A
:100900004746D6F800804FF00F0909FA07F928EAA0
:1009100009080CFA07F900E07AE048EA0908C6F885
:100920000080D1F8048008F08058B8F1805F6FD162
:1009300000BFDFF8E481D8F8188048F00108DFF83C
:10094000D891C9F81880C846D8F8188008F001086E
:10095000CDF8008000BF00BF4FEAB9384FEA9309D5
:1009600058F829504FEA83784FEA18794FF00F086A
:1009700008FA09F825EA0805DFF8A081424502D106
:100980004FF0000824E0DFF89881424502D14FF093
:1009900001081DE0DFF88C81424502D14FF00208CA
:1009A00016E0DFF88481424502D14FF003080FE0E2
:1009B000DFF87881424502D14FF0040808E0DFF803
:1009C0007081424502D14FF0050801E04FF0060862
:1009D0004FEA83794FEA197908FA09F848EA0505D8
:1009E000DFF850814FEA930948F82950D1F8048084
:1009F00008F48038B8F5803F0BD1DFF83C81D8F897
:100A0000008048EA0008DFF83091C9F800800AE069
:100A100075E0DFF82481D8F8008028EA0008DFF8C4
:100A20001891C9F80080D1F8048008F40038B8F5AE
:100A3000003F0ED1DFF8008108F10408D8F80080EB
:100A400048EA0008DFF8F09009F10409C9F80080CD
:100A50000DE0DFF8E48008F10408D8F8008028EA07
:100A60000008DFF8D49009F10409C9F80080D1F832
:100A7000048008F48018B8F5801F0ED1DFF8B88024
:100A800008F10808D8F8008048EA0008DFF8A890C4
:100A900009F10809C9F800800DE0DFF89C8008F131
:100AA0000808D8F8008028EA0008DFF88C9009F1DF
:100AB0000809C9F80080D1F8048008F40018B8F5D6
:100AC000001F0ED1DFF8708008F10C08D8F8008004
:100AD00048EA0008DFF8609009F10C09C9F80080C5
:100AE0000DE0DFF8548008F10C08D8F8008028EAFF
:100AF0000008DFF8449009F10C09C9F800805B1C7C
:100B0000D1F8008028FA03F8B8F1000F7FF47CAE2A
:100B1000BDE8F887000011100010024000080140F5
:100B2000000C014000100140001401400018014079
:100B3000001C014008000140000401400246936887
:100B40000B400BB1012000E00020704710B5C268D7
:100B500021EA020302EA010443EA0443036110BDEF
:100B60000AB1016101E00B040361704701480068AC
:100B700070470000A8020020704770472DE9F04739
:100B800005464FF0000928684668D5F82CA095F86E
:100B90003E7095F83D80102F01D0402F75D1286808
:100BA000D0F818902868446904F0010060B9BAF5DB
:100BB0002A0F02D0BAF12A4F01D1012000E0002013
:100BC000012801D1BDE8F08704F0010048B1C6F367
:100BD000402030B1284601F0F5FE284602F086FBA1
:100BE000B7E0C4F3C00030B1C6F3402018B12846C6
:100BF00002F027FAADE0C4F3400030B1C6F3402064
:100C000018B1284602F032FAA3E0C9F3800040B3DD
:100C10002868406800F40060B0F5006FE0D0C4F3CD
:100C2000C01048B1C6F3802030B1C4F3800018B9B9
:100C3000284602F09AF98CE0C4F380000028CFD057
:100C4000C6F340200028CBD0B8F1210F03D12846AD
:100C500002F03BF97DE0402F7BD1284602F095FB66
:100C600077E02868406800F40060B0F5006F70D04D
:100C7000C4F3801050B1C6F3802038B1C4F38000B3
:100C800020B9284602F0B0F863E00BE0C4F380001E
:100C900000285ED0C6F3402000285AD0284602F033
:100CA00010F856E0286C10B12868446904E0286800
:100CB000D0F8189028684469C4F3400060B1C6F3C6
:100CC000402048B1286C10B12868D0F818904946E7
:100CD000284602F039FD3CE0C4F3001030B1C6F301
:100CE000402018B1284602F067FD32E0B8F1210F2C
:100CF00002D0B8F1290F16D1C4F3C01048B1C6F321
:100D0000802030B1C4F3800018B9284602F0F9FC05
:100D10001FE0C4F38000E0B1C6F34020C8B128460C
:100D200002F0E2FC15E0C4F3801048B1C6F3802065
:100D300030B1C4F3800018B9284602F0B2FC08E0D4
:100D4000C4F3800028B1C6F3402010B1284602F059
:100D50009BFC00BF36E7704770B504460CB9012014
:100D600070BD94F83D0028B9002084F83C0020466E
:100D700000F03EFC242084F83D002068006820F04C
:100D80000100216808602068006840F40040216884
:100D900008602068006820F400402168086000F0C6
:100DA00037FE05465C496068884206D85B48854244
:100DB00001D2012007E0002005E05948854201D218
:100DC000012000E00020012800D1C9E75548B5FB0B
:100DD000F0F62068406820F03F003043216848600A
:100DE0004D496068884201D8701C07E04FF4967046
:100DF00070434FF47A71B0FBF1F0401C2168096A2E
:100E000021F03F0108432168086243496068884235
:100E100014D8681E61684900B0FBF1F0401CC0F3B3
:100E20000B00042801D204203DE0681E61684900DF
:100E3000B0FBF1F0401CC0F30B0034E0A06838B9FF
:100E4000681E616801EB4101B0FBF1F0401C0AE053
:100E5000681E616801EBC10202EB0111B0FBF1F009
:100E6000401C40F48040C0F30B0008B901201AE098
:100E7000A06848B9681E616801EB4101B0FBF1F060
:100E8000401CC0F30B000CE0681E616801EBC1025E
:100E900002EB0111B0FBF1F0401CC0F30B0040F479
:100EA000804040F400402168C9694CF6FF729143CC
:100EB00008432168C861D4E907010843216809682B
:100EC00021F0C001084321680860D4E903100843F9
:100ED0002168896848F2FF3291430843216888609D
:100EE000D4E9050108432168C96821F0FF010843DE
:100EF0002168C8602068006840F00100216808602F
:100F000000202064202084F83D000020206384F825
:100F10003E0000BF24E70000A086010080841E0080
:100F200000093D0040420F0070477047704770470E
:100F30001CB504463748007804280CD100218D20C8
:100F400003F07EF90021102003F07AF90021AE2091
:100F500003F076F95CE02F48007803280FD10020D9
:100F60002D490870012003460022CDE900107821A8
:100F70002A4800F0BDFA00202649087048E02548BC
:100F8000007802280FD11020234908700120034661
:100F90000022CDE900107821204800F0A9FA0320B2
:100FA0001C49087034E01B480078012811D11C4806
:100FB0000078B03018490870012003460022CDE9BE
:100FC00000107821154800F093FA022011490870AA
:100FD0001EE010480078D8B980211248104A1278D3
:100FE00000EBC21001234022CDE9000178210B481B
:100FF00000F07EFA0A480078401C0949087008464B
:101000000078072801DD00200870012001490870E0
:101010001CBD00001A0000201E000020A8080020AF
:101020001D000020520400202DE9FE4F04460F460B
:1010300090469946DDE90CAB0E9E00200290FFF72A
:1010400095FD054694F83D00202872D11923012210
:10105000CA492046009502F0A3FC10B10220BDE869
:10106000FE8F00BF94F83C00012801D10220F6E772
:10107000012084F83C0000BF2068006800F00100F7
:1010800028B92068006840F00100216808602068E5
:10109000006820F4006021680860222084F83D0088
:1010A000402084F83E0000202064C4F824A0A4F866
:1010B0002AB0608D2085B248E0624B4642463946F0
:1010C0002046CDE9006502F0BFF908B10120C6E76E
:1010D000208D88B900BF00200190206840690190F0
:1010E00020688069019000BF00BF2068006840F45C
:1010F0000070216808604BE0208D01281AD120681B
:10110000006820F480602168086072B600BF00208B
:10111000019020684069019020688069019000BFBB
:1011200000BF2068006840F400702168086062B663
:101130002EE020E1208D022819D12068006840F4BB
:1011400000602168086072B600BF0020019020682E
:101150004069019020688069019000BF00BF20684D
:10116000006820F480602168086062B610E02068A2
:10117000006840F480602168086000BF0020019092
:1011800020684069019020688069019000BF00BF1D
:10119000E2E0208D03287DD8208D012815D12A4634
:1011A0003146204602F0A1FC08B1012057E7206833
:1011B0000069616A0870606A401C6062208D401E90
:1011C0002085608D401E6085C6E0208D02282CD1D0
:1011D000334600226B492046009502F0E1FB08B13E
:1011E00001203CE772B62068006840F40070216876
:1011F000086020680069616A0870606A401C60626B
:10120000208D401E2085608D401E608562B620685E
:101210000069616A0870606A401C6062208D401E2F
:101220002085608D401E608596E03346002255493A
:101230002046009502F0B4FB08B101200FE72068BA
:10124000006820F480602168086072B62068006938
:10125000616A0870606A401C6062208D401E2085B3
:10126000608D401E6085484800681921B0FBF1F090
:101270004FF47A71B0FBF1F0C0EBC00000EB8000DE
:10128000029000BF0298401E02900298A8B9002068
:10129000206300E039E0202084F83D00002084F83D
:1012A0003E00206C40F02000206462B600BF0020A9
:1012B00084F83C0000BF0120D1E620684069C0F3FB
:1012C00080000028DED02068006840F400702168AB
:1012D000086020680069616A0870606A401C60628A
:1012E000208D401E2085608D401E608562B620687E
:1012F0000069616A0870606A401C6062208D401E4F
:101300002085608D401E608526E02A4631462046B5
:1013100002F0EBFB08B10120A1E620680069616AD8
:101320000870606A401C6062208D401E2085608DC0
:10133000401E608520684069C0F3800060B120686D
:101340000069616A0870606A401C6062208D401EFE
:101350002085608D401E6085208D00287FF419AFA8
:10136000202084F83D00002084F83E0000BF84F86F
:101370003C0000BF73E6022071E60000020010008E
:101380000000FFFF04000100B40200202DE9FC5F13
:1013900004460F4690469946DDE90CAB0E9EFFF7DA
:1013A000E5FB054694F83D0020287DD11923012254
:1013B0004D492046009502F0F3FA10B10220BDE835
:1013C000FC9F00BF94F83C00012801D10220F6E701
:1013D000012084F83C0000BF2068006800F0010094
:1013E00028B92068006840F0010021680860206882
:1013F000006820F4006021680860212084F83D0026
:10140000402084F83E0000202064C4F824A0A4F802
:101410002AB0608D20853548E0624B464246394609
:101420002046CDE9006502F0BFF808B10120C6E70B
:1014300031E02A463146204602F0C0FB50B1206C14
:10144000042805D12068006840F400702168086015
:101450000120B4E7606A007821680861606A401C76
:101460006062208D401E2085608D401E6085206852
:101470004069C0F3800070B1208D60B1606A00786F
:1014800021680861606A401C6062208D401E2085D2
:10149000608D401E6085208D0028CAD12A463146C5
:1014A000204602F04FFA00E01CE050B1206C042806
:1014B00005D12068006840F40070216808600120B0
:1014C0007DE72068006840F40070216808602020F3
:1014D00084F83D00002084F83E0000BF84F83C0002
:1014E00000BF6CE702206AE7020010000000FFFF67
:1014F000F8B50446DDE906560020009094F83D005A
:1015000020286FD1384800681927B0FBF7F04FF456
:101510007A77B0FBF7F000EBC00707EB0010009004
:1015200000BF0098401E0090009890B900202063F2
:10153000202084F83D00002084F83E00206C40F01C
:101540002000206400BF002084F83C0000BF012080
:10155000F8BD20688069C0F340000028E1D100BFD9
:1015600094F83C00012801D10220F1E7012084F821
:101570003C0000BF2068006800F0010028B9206826
:10158000006840F00100276838602068006820F497
:10159000006027683860212084F83D00402084F8EE
:1015A0003E000020206465626685608D20850F48BE
:1015B000E0626164A264E364002020652068006842
:1015C00040F480702768386000BF002084F83C0039
:1015D00000BF2068406840F4E06027687860002021
:1015E000B6E7FFE70220B3E7B40200200000FFFFE8
:1015F00010B586B004460020029003900490059038
:101600002F492068884225D100BF2E48806940F0CC
:1016100008002C4988610846806900F008000190A4
:1016200000BF00BFC020029012200390032005904D
:1016300002A92548FFF7E2F800BF2248C06940F43C
:1016400000102049C8610846C06900F400100190EC
:1016500000BF32E01D49206888422ED100BF1948E2
:10166000806940F00800174988610846806900F0E9
:101670000800019000BF00BF4FF4406002901220AC
:1016800003900320059002A90F48FFF7B7F800BFA9
:101690000C48C06940F480000A49C8610846C06926
:1016A00000F48000019000BF00BF00220121212032
:1016B00000F090F8212000F07DF806B010BD000089
:1016C0000054004000100240000C0140005800404F
:1016D0007047704703480068034909780844014986
:1016E00008607047A8020020B002002010B508482A
:1016F000006840F0100006490860032000F0A8F8D8
:101700000F2000F007F800F02BF8002010BD0000BB
:101710000020024070B504460E4800784FF47A71FC
:10172000B1FBF0F00C490968B1FBF0F5284600F078
:101730000BFC08B1012070BD102C07D200222146FD
:10174000501E00F047F80548046001E00120F2E770
:101750000020F0E7B0020020B4020020AC0200201C
:1017600008B500BF1148806940F001000F49886149
:101770000846806900F00100009000BF00BF00BF74
:101780000846C06940F08050C8610846C06900F052
:101790008050009000BF00BF00BF0549486820F09E
:1017A000E06040F00070486000BF08BD00100240DB
:1017B0000000014001460846002809DB00F01F0335
:1017C00001229A4043099B0003F1E023C3F8002162
:1017D00000BF70472DE9F05F80460D461646002792
:1017E00003F0D6F9074639462A46334601F007008A
:1017F000C0F1070ABAF1040F02D94FF0040A01E060
:10180000C0F1070AD14600F1040ABAF1070F02D26B
:101810004FF0000A01E0A0F1030AD4464FF0010A9C
:101820000AFA09FAAAF1010A0AEA020A0AFA0CFA01
:101830004FF0010B0BFA0CFBABF1010B0BEA030BA6
:101840004AEA0B042146404603F0AAF9BDE8F09F9E
:1018500000BF00F00702064B19684FF6FF0319405E
:10186000044B0B4343EA0221014B196000BF704750
:101870000CED00E00000FA0570B504460D460CB909
:10188000012070BD5A48006800F00700A8420ED23F
:101890005748006820F0070028435549086008466B
:1018A000006800F00700A84201D00120E9E7207895
:1018B00000F0020002281DD1207800F00400042866
:1018C00005D14C48406840F4E0604A4948602078BF
:1018D00000F00800082805D14648406840F46050F0
:1018E000444948604348406820F0F000A16808433C
:1018F00040494860207800F0010078B36068012812
:1019000006D13C48006800F4003090B90120B8E7E7
:101910006068022806D13748006800F0007040B9BE
:101920000120AEE73348006800F0020008B901204A
:10193000A7E73048406820F00300616808432D495C
:101940004860FFF713F9064609E0FFF70FF9801B1F
:1019500041F28831884202D9032092E707E0254806
:10196000406800F00C006168B0EB810FEDD12048B9
:10197000006800F00700A8420ED91D48006820F05A
:10198000070028431A4908600846006800F007006D
:10199000A84201D0012074E7207800F00400042858
:1019A00007D11448406820F4E060E1680843114919
:1019B0004860207800F00800082808D10D484068E9
:1019C00020F46050216940EAC1000A49486000F0F3
:1019D0003FF808494968C1F30311074A515CC84000
:1019E0000649086006480068FFF794FE002048E7B3
:1019F0000020024000100240E6650008B40200200A
:101A0000AC0200200148006870470000B4020020CA
:101A100000B5FFF7F7FF04494968C1F30221034A03
:101A2000515CC84000BD000000100240F66500088F
:101A300000B5FFF7E7FF04494968C1F3C221034A33
:101A4000515CC84000BD000000100240F66500086F
:101A5000F0B585B00FF26C0C9CE8E01001A8A0E88E
:101A6000E0101CA52D680095002100220023002411
:101A70000020194D696801F00C05F5B1042D02D064
:101A8000082D19D101E0154819E001ADC1F38346D5
:101A9000AC5D01F4803555B10F4D6D68C5F340451F
:101AA0001DF805200D4D6543B5FBF2F302E00C4D2A
:101AB00004FB05F3184602E000BF084800BF00BF62
:101AC00005B0F0BD02030405060708090A0B0C0D5A
:101AD0000E0F1010010200000010024000127A00E8
:101AE00000093D00F8B504460CB90120F8BD207886
:101AF00000F00100002878D0F848406800F00C00A1
:101B000004280CD0F548406800F00C00082811D1DA
:101B1000F248406800F48030B0F5803F0AD1EF48C9
:101B2000006800F4003000285FD0606800285CD1B5
:101B30000120DBE700BF6068B0F5803F06D1E748D1
:101B4000006840F48030E549086028E0606858B9D2
:101B5000E248006820F48030E049086008460068E8
:101B600020F4802008601AE06068B0F5A02F0BD147
:101B7000DA48006840F48020D849086008460068C8
:101B800040F4803008600AE0D448006820F48030D7
:101B9000D24908600846006820F48020086000BF31
:101BA000606888B1FEF7E2FF054606E0FEF7DEFF5B
:101BB000401B642801D9032098E7C848006800F456
:101BC00000300028F2D010E0FEF7D0FF054606E016
:101BD000FEF7CCFF401B642801D9032086E7BF48ED
:101BE000006800F400300028F2D1207800F00200F4
:101BF000022857D1B948406800F00C0050B1B748EE
:101C0000406800F00C00082818D1B448406800F47F
:101C1000803098B9B148006800F0020020B1206916
:101C2000012801D0012061E7AC48006820F0F800ED
:101C3000616940EAC100A949086033E02069E8B160
:101C40000120A7490860FEF791FF054606E0FEF770
:101C50008DFF401B022801D9032047E79F480068F9
:101C600000F002000028F2D09C48006820F0F80044
:101C7000616940EAC1009949086013E00020984971
:101C80000860FEF773FF054606E0FEF76FFF401B96
:101C9000022801D9032029E79048006800F00200DB
:101CA0000028F2D1207800F0080008282DD1A06982
:101CB000B8B101208B490860FEF758FF054606E0E1
:101CC000FEF754FF401B022801D903200EE783488A
:101CD000406A00F002000028F2D0012002F0CAFCA5
:101CE00013E000207F490860FEF740FF054606E04C
:101CF000FEF73CFF401B022801D90320F6E6774897
:101D0000406A00F002000028F2D1207800F00400C0
:101D1000042873D100277148C06900F0805070B961
:101D200000BF6E48C06940F080506C49C8610846E9
:101D3000C06900F08050009000BF00BF01276A48D2
:101D4000006800F48070B0B96748006840F48070A3
:101D500065490860FEF70AFF054606E0FEF706FF44
:101D6000401B642801D90320C0E65F48006800F4E6
:101D700080700028F2D000BFE068012806D15748E3
:101D8000006A40F001005549086227E0E06858B950
:101D90005248006A20F00100504908620846006A73
:101DA00020F00400086219E0E06805280BD14B48D8
:101DB000006A40F00400494908620846006A40F0A1
:101DC000010008620AE04548006A20F0010043492A
:101DD00008620846006A20F00400086200BFE0685C
:101DE000A0B1FEF7C3FE054609E0FEF7BFFE401BAB
:101DF00041F28831884202D9032077E622E0374851
:101E0000006A00F002000028EFD012E0FEF7AEFEFC
:101E1000054608E0FEF7AAFE401B41F288318842E1
:101E200001D9032062E62D48006A00F00200002874
:101E3000F0D1012F05D12948C06920F080502749F1
:101E4000C86100BFE069C8B32448406800F00C00D6
:101E5000082860D0E069022848D10020204908669F
:101E6000FEF784FE054606E0FEF780FE401B0228D2
:101E700001D903203AE61948006800F000700028F4
:101E8000F2D1206AB0F5803F07D11448406820F4B1
:101E90000030A168084311494860D4E908010843AB
:101EA0000E49496821F4741108430C494860012027
:101EB0000B490866FEF75AFE054607E03DE0FEF7CF
:101EC00055FE401B022801D903200FE60348006895
:101ED00000F000700028F2D02FE000000010024057
:101EE0000000424280044242007000400020144939
:101EF0000866FEF73BFE054606E0FEF737FE401B90
:101F0000022801D90320F1E50E48006800F00070B6
:101F10000028F2D111E0E069012800D1E6E5094886
:101F2000466806F48031206A814204D106F47011BB
:101F3000606A814201D00120D8E50020D6E500008A
:101F4000000042420010024070B504462546681E5B
:101F5000B0F1807F01D301200FE0681E4FF0E02137
:101F600048610F214FF0FF3002F01AFE00204FF0C1
:101F7000E021886107200861002070BD704770472C
:101F800030B502460B4600BF92F83C00012801D153
:101F9000022030BD012082F83C0000BF022082F800
:101FA0003D00106844681068816824F07004186867
:101FB000044310684460144D1068A84213D0134DB8
:101FC0001068A8420FD01068B0F1804F0BD0104DB0
:101FD0001068A84207D00F4D1068A84203D00E4DDC
:101FE0001068A84205D121F08001586801431068AB
:101FF0008160012082F83D0000BF002082F83C0093
:1020000000BF00BFC5E70000002C014000340140C4
:102010000004004000080040000C004010B50446D9
:102020000CB9012010BD94F83D0028B9002084F8B7
:102030003C00204600F026F8022084F83D00211DD7
:10204000206802F075FB012084F8460000BF84F888
:102050003E0001213F2001554020015541200155FE
:1020600000BF00BF012084F84200432001554420F6
:1020700001554520015500BF012084F83D00002096
:10208000D0E7000038B504461A492068884216D1C6
:1020900000BF1948C06940F010001749C8610846E0
:1020A000C06900F01000009000BF00BF0022114680
:1020B0003620FFF78FFB3620FFF77CFB19E00F4936
:1020C0002068884215D100BF0B48C06940F020004D
:1020D0000949C8610846C06900F02000009000BFAF
:1020E00000BF002203213720FFF774FB3720FFF7E2
:1020F00061FB38BD00100040001002400014004099
:10210000014691F83D00012801D0012070470220CE
:1021100081F83D000868C06840F001000B68D86095
:10212000164B0868984213D0154B086898420FD098
:102130000868B0F1804F0BD0124B0868984207D066
:10214000114B0868984203D0104B086898420CD194
:102150000868806800F00702062A0CD0086800684A
:1021600040F001000B68186005E00868006840F066
:1021700001000B6818600020C8E70000002C014037
:10218000003401400004004000080040000C004002
:10219000704710B5044620680069C0F34000D8B10C
:1021A0002068C068C0F34000B0B16FF00200216841
:1021B0000861012020772068806900F0030018B1D1
:1021C0002046FFF7E5FF05E0204600F0ADF8204689
:1021D00000F0ABF80020207720680069C0F3800091
:1021E000D8B12068C068C0F38000B0B16FF00400BF
:1021F00021680861022020772068806900F440701F
:1022000018B12046FFF7C4FF05E0204600F08CF827
:10221000204600F08AF80020207720680069C0F38B
:10222000C000D8B12068C068C0F3C000B0B16FF082
:10223000080021680861042020772068C06900F048
:10224000030018B12046FFF7A3FF05E0204600F089
:102250006BF8204600F069F80020207720680069BC
:10226000C0F30010D8B12068C068C0F30010B0B14E
:102270006FF0100021680861082020772068C0698D
:1022800000F4407018B12046FFF782FF05E02046B9
:1022900000F04AF8204600F048F800202077206837
:1022A000006900F0010058B12068C06800F001002A
:1022B00030B16FF0010021680861204600F036F867
:1022C00020680069C0F3C01058B12068C068C0F32E
:1022D000C01030B16FF08000216808612046FFF720
:1022E0004DFE20680069C0F3801058B12068C068B6
:1022F000C0F3801030B16FF04000216808612046C3
:1023000000F06CF820680069C0F3401058B12068F4
:10231000C068C0F3401030B16FF020002168086140
:102320002046FFF72CFE10BD7047704710B50446DD
:102330001D4884421AD11D48007801280FD14FF65C
:10234000FF731B4802781B491B4800F0C7FAC821DD
:102350001848FEF72FF800201449087006E04FF6E1
:10236000FF730F2215A1144800F0B8FA17488442F1
:1023700019D14FF480711648FEF7E0FB98B920217F
:102380001348FEF7E3FB02F0AFFD02F01FFF114917
:10239000087002F015FF104908700846007864289C
:1023A00001DD6420087010BD44090020A202002055
:1023B000A00200208C090020980A002048656C6C5F
:1023C0006F20576F726C64210D0A0000FC0800201A
:1023D000000C0140940200209502002070477047D5
:1023E000704700002DE9F84F044620680568206812
:1023F000C668206847694FF00009CA4605F00F0912
:10240000B9F1000F0AD105F0200038B106F0200024
:1024100020B1204602F017FABDE8F88FB9F1000F9D
:1024200071D007F0010018B906F4907000286AD046
:1024300005F0010030B106F4807018B1206C40F056
:102440000100206405F0040030B107F0010018B16C
:10245000206C40F00200206405F0020030B107F06B
:10246000010018B1206C40F00400206405F0080061
:1024700048B106F0200010B907F0010018B1206C37
:1024800040F008002064206C68B305F0200028B1FB
:1024900006F0200010B1204602F0D5F9206840690E
:1024A000C0F3801A206C00F0080010B9BAF1000FD8
:1024B00022D0204602F09CF92068406900F04000DC
:1024C000B0B12068406920F0400021684861A06BED
:1024D00050B15648A16B4863A06BFEF7A3F810B14A
:1024E000A06B416B88470CE02046FFF779FF08E0BE
:1024F0002046FFF775FF04E02046FFF771FF00203C
:10250000206489E7FFE7206B012878D105F01000EF
:10251000002874D006F01000002870D000BF002002
:10252000009020680068009020684068009000BF1C
:1025300000BF2068406900F04000C0B3A06B006895
:1025400040681FFA80F8B8F1000F2FD0A08D4045E9
:102550002CDDA4F82E80A06B806920281FD0206875
:10256000C06820F480702168C8602068406920F04D
:102570000100216848612068406920F0400021681E
:102580004861202084F83E00002020632068C06855
:1025900020F010002168C860A06BFEF717F8A08D2E
:1025A000E28D801A81B22046FFF719FF34E7FFE77A
:1025B000A08DE18D401A1FFA80F8E08DE8B1B8F1E6
:1025C000000F1AD02068C06820F490702168C8609D
:1025D0002068406920F0010021684861202084F8CB
:1025E0003E00002020632068C06820F010002168B1
:1025F000C86041462046FFF7F2FE0DE7FFE705F011
:10260000800030B106F0800018B1204602F02FFAA9
:1026100002E705F0400030B106F0400018B1204656
:1026200002F001F9F8E600BFF6E60000DD47000819
:1026300010B504460CB9012010BDA06900B100E03E
:1026400000BF94F83D0028B9002084F83C002046E3
:1026500000F028F8242084F83D002068C06820F4A9
:1026600000502168C860204602F060F920680069C7
:1026700020F49040216808612068406920F02A0019
:10268000216848612068C06840F400502168C86033
:1026900000202064202084F83D0084F83E000020C3
:1026A000CAE7000010B586B00446002002900390EF
:1026B0000490059055492068884237D100BF54489E
:1026C000C06940F400205249C8610846C06900F45E
:1026D0000020019000BF00BF00BF0846806940F0A5
:1026E000100088610846806900F01000019000BF6A
:1026F00000BF08150290022003900320059002A954
:102700004448FEF77BF84FF40060029000200390ED
:10271000049002A93F48FEF771F8002202213420FC
:10272000FFF758F83420FFF745F86DE03A49206884
:1027300088422FD100BF3648806940F48040344938
:1027400088610846806900F48040019000BF00BFA6
:1027500000BF0846806940F004008861084680692F
:1027600000F00400019000BF00BF48150290022055
:1027700003900320059002A92848FEF73FF84FF484
:102780008060029000200390049002A92348FEF785
:1027900035F839E022492068884235D100BF1C480D
:1027A000C06940F400301A49C8610846C06900F4A5
:1027B0000030019000BF00BF00BF0846806940F0B4
:1027C000040088610846806900F00400019000BFA1
:1027D00000BF04200290022003900320059002A96C
:1027E0000E48FEF70BF8082002900020039004909A
:1027F00002A90A48FEF702F8002202212620FEF76D
:10280000E9FF2620FEF7D6FF06B010BD004C0040C1
:102810000010024000100140003801400008014053
:102820000044004070B504460D46164694F83E003C
:10283000202816D105B10EB9012070BD00BF94F853
:102840003C00012801D10220F7E7012084F83C0078
:1028500000BF0020206332462946204602F0E4F8FB
:10286000EBE70220E9E7000010B504461348844274
:1028700023D11348007830280AD11148017811A0DB
:10288000FDF7EAFC002210210F48FEF769F908E085
:102890000B480078312804D1012210210A48FEF7A4
:1028A0005FF94FF6FF730F2208A1044800F016F8F5
:1028B000012203490148FFF7B5FF10BD540A00206B
:1028C0009C02002025640000000C014048656C6CEF
:1028D0006F20576F726C64210D0A00002DE9F84FCC
:1028E00004460E46174699464FF0000A94F83D00FC
:1028F00020285AD106B117B90120BDE8F88F00BFD2
:1029000094F83C00012801D10220F6E7012084F868
:102910003C0000BF00202064212084F83D00FEF729
:1029200025F98246A784E784A068B0F5805F04D1CA
:10293000206910B90025B04602E035464FF0000886
:1029400000BF002084F83C0000BF1BE0534600227B
:1029500080212046CDF8009002F0B9F808B103209C
:10296000CBE745B9B8F80000C0F30800216848601B
:1029700008F1020803E02878216848606D1CE08CAB
:10298000401EE084E08C0028E0D153460022402124
:102990002046CDF8009002F09AF808B10320ACE789
:1029A000202084F83D000020A7E70220A5E770471B
:1029B00000BFFEE710B50248FEF7E0F810BD0000CA
:1029C000A8080020C16AB1F52A0F02D10121C16215
:1029D00005E0C16AB1F12A4F01D10821C1627047F7
:1029E000F8B50546002000906C6A94F83D603948BF
:1029F00000681921B0FBF1F04FF47A71B0FBF1F0EF
:102A0000C0EBC00000EB8000009000BF009820B930
:102A1000206C40F02000206409E00098401E0090E7
:102A20002068006800F40070B0F5007FEED000BFB1
:102A3000606B10B10020616B8862A06B10B1002048
:102A4000A16B88622068006820F4806021680860BB
:102A500000206085606B10B10020616B4863A06B43
:102A600010B10020A16B48632068006820F00100CD
:102A70002168086094F83D0060280AD1202084F87D
:102A80003D00002084F83E0020642046FEF774F8E4
:102A90001EE006F02800282811D12068006840F0C8
:102AA0000100216808602068006840F480602168A7
:102AB000086000202063282084F83D0005E02020E5
:102AC00084F83D00002084F83E002046FEF743F9DC
:102AD000F8BD0000B40200202DE9F041044694F84E
:102AE0003D6094F83E70102F01D0402F07D1222E68
:102AF00005D12068006820F400602168086006F0B5
:102B00002800282805D100202063282084F83D00D3
:102B100010E02068406800F40060B0F5006F07D056
:102B2000602E05D0202084F83D00002084F83E006F
:102B3000002020632068406800F40060B0F5006F5A
:102B400040D12068406820F4006021684860606BD4
:102B500090F82100012814D04848616B4863606BED
:102B6000FDF760FD00285BD02068006820F00100C0
:102B700021680860202084F83D00606B416B884725
:102B80004EE03E48A16B4863A06BFDF74BFD00286B
:102B900046D020684069C0F3801030B120680069D9
:102BA000616A0870606A401C60622068006820F0FA
:102BB000010021680860202084F83D00A06B416B73
:102BC00088472DE094F83D0060281AD1202084F831
:102BD0003D000020206420684069C0F3801030B1BF
:102BE00020680069616A0870606A401C6062206841
:102BF000006820F00100216808602046FDF7BCFF56
:102C00000EE020684069C0F3801030B12068006990
:102C1000616A0870606A401C60622046FEF79BF89B
:102C2000256C05F0010058B905F00200022807D014
:102C300005F00400042803D005F00800082805D199
:102C40002068406820F4E0602168486094F83D60A6
:102C5000206C00F0040004280ED1282E0CD1084866
:102C6000E06200202063202084F83D00002084F8EA
:102C70003E002046FEF758F9BDE8F081E129000842
:102C80000000FFFF014608684069C0F38020B0B132
:102C90006FF480600A68506100200863202081F88A
:102CA0003D00002081F83E00086C40F004000864FC
:102CB00000BF002081F83C0000BF012070470020C9
:102CC000FCE770B50446E56A608D042810D12068E1
:102CD000406820F480602168486020680069616A6B
:102CE0000870606A401C6062608D401E60857AE0FA
:102CF000608D03281AD12068406820F48060216824
:102D00004860042D07D0022D05D02068006820F40B
:102D100080602168086020680069616A0870606AE4
:102D2000401C6062608D401E60855CE0608D022802
:102D30004FD1012D01D0102D06D12068006820F45C
:102D400080602168086012E0042D01D0022D06D1B8
:102D50002068006840F480602168086007E0102D5A
:102D600005D02068006840F4007021680860206881
:102D70000069616A0870606A401C6062608D401E74
:102D8000608520680069616A0870606A401C606242
:102D9000608D401E60852068406820F44070216886
:102DA0004860202084F83D0094F83E00402807D178
:102DB000002084F83E0020632046FEF7B8F812E0B9
:102DC000002084F83E00122020632046FEF7ADF874
:102DD00009E020680069616A0870606A401C6062EE
:102DE000608D401E608570BD70B5044694F83D004E
:102DF000222869D1658D032D13D920680069616A85
:102E00000870606A401C6062608D401E6085608D45
:102E1000032858D12068406820F480602168486009
:102E200051E0E06A02284ED0012D01D0002D4AD198
:102E3000204600F09BFE68BB2068006820F480609C
:102E4000216808602068406820F4E06021684860DC
:102E500020680069616A0870606A401C6062608D69
:102E6000401E6085202084F83D0094F83E004028F4
:102E700007D1002084F83E0020632046FEF757F873
:102E800021E0002084F83E00122020632046FEF757
:102E90004CF818E02068406820F4E0602168486041
:102EA00020680069616A0870606A401C6062608D19
:102EB000401E6085202084F83D00002084F83E00FC
:102EC0002046FDF748FF00BF70BD70B50446E56AB7
:102ED00094F83D00212847D1608D50B1606A007898
:102EE00021680861606A401C6062608D401E6085D8
:102EF0003AE0082D16D0202D14D015F5803F11D0C2
:102F00002068406820F4E060216848601120206358
:102F1000002084F83E00202084F83D002046FEF783
:102F200005F821E02068406820F4E06021684860EE
:102F30002068006840F40070216808600020206369
:102F4000202084F83D0094F83E00402806D100205F
:102F500084F83E002046FDF7EBFF05E0002084F8F2
:102F60003E002046FDF7E2FF70BD2DE9F04104462A
:102F700094F83D5094F83E70E66A208DB0BB212D48
:102F80003CD1082E16D0202E14D016F5803F11D03B
:102F90002068406820F4E0602168486011202063C8
:102FA000002084F83E00202084F83D002046FDF7F4
:102FB000BDFF44E02068406820F4E060216848607C
:102FC0002068006840F400702168086000202063D9
:102FD000202084F83D0094F83E00402807D10020CE
:102FE00084F83E002046FDF7A3FF28E006E000201D
:102FF00084F83E002046FDF799FF20E0212D03D004
:10300000402F1CD1222D1AD1608D30B92068406824
:1030100020F480602168486011E094F83E00402868
:1030200003D1204600F0B1F909E0606A0078216818
:103030000861606A401C6062608D401E6085BDE86A
:10304000F081416CC9B202681161416B11B1416BF1
:10305000896A21B9816B41B1816B896A29B10168A3
:10306000496841F4006102685160704738B590F8D2
:103070003E20C16A036B90F83D40222C73D1046D51
:1030800064B9402A0AD100BF00240094046864692E
:1030900000940468A469009400BF26E1046DC4B9DB
:1030A0000469B4F5404F14D100BF002400940468B3
:1030B000646900940468A469009400BF00BF0468B8
:1030C000246844F4807405682C60046D641C0465F5
:1030D0000BE1448D8CB900BF00240094046864693E
:1030E00000940468A469009400BF00BF04682468C9
:1030F00044F4007405682C60E9E0448D012C72D121
:1031000011F5803F30D10468246824F48064056898
:103110002C600468646804F40064B4F5006F10D196
:103120000468246824F4806405682C6000BF0024CF
:1031300000940468646900940468A469009400BF62
:10314000C5E000BF0024009404686469009404682A
:10315000A469009400BF00BF0468246844F40074AC
:1031600005682C60B3E0B5E0082923D0202921D0E0
:10317000122B01D101291DD104290AD0022908D01E
:10318000102906D00468246824F4806405682C6043
:1031900005E00468246844F4806405682C6000BF7E
:1031A000002400940468646900940468A46900948D
:1031B00000BF8CE00468246824F4806405682C60F7
:1031C00000BF002400940468646900940468A46942
:1031D000009400BF00BF0468246844F400740568CC
:1031E0002C6074E0FFE7448D022C47D104291BD0EA
:1031F000022919D0102917D00468246844F4006407
:1032000005682C6000BF0024009404686469009481
:103210000468A469009400BF00BF0468246824F413
:10322000806405682C6010E00468246844F48064BD
:1032300005682C6000BF0024009404686469009451
:103240000468A469009400BF00BF0468646804F4C3
:103250000064B4F5006F3AD111F5803F07D0012921
:1032600005D0082903D0102901D020292FD10468C6
:10327000646844F4805405686C6028E0046824683D
:1032800044F4806405682C600468646804F4006495
:10329000B4F5006F10D111F5803F07D0012905D09A
:1032A000082903D0102901D0202905D104686468B9
:1032B00044F4805405686C6000BF002400940468E6
:1032C000646900940468A469009400BF00BF0024EE
:1032D00004650AE000BF0024009404686469009457
:1032E0000468A469009400BF00BF38BD90F83E1088
:1032F00040290ED1016D29B9416C01F0FE0102682F
:10330000116141E0416CC9B241F0010102681161F3
:103310003AE00169B1F5804F20D190F83D102129A4
:1033200005D1416C01F0FE010268116105E0416CBC
:10333000C9B241F0010102681161416B11B1416BE9
:10334000896A21B9816BF9B1816B896AE1B1016840
:10335000496841F400610268516015E0016D41B9AE
:10336000416C01F44071F02242EAE11102681161FE
:103370000AE0016D012907D1416C01F44071F1228D
:1033800042EAE11102681161704770B5044694F891
:103390003D50206D98B9E06C012807D1A06CC0B2F7
:1033A00021680861206D801C20654CE0A06CC0F392
:1033B000072021680861206D401C206543E0206DD6
:1033C000012807D1A06CC0B221680861206D401CA3
:1033D000206538E0206D022835D1222D09D12068E2
:1033E000006840F4807021680860206D401C2065F2
:1033F00029E0608D60B1212D0AD1606A00782168D2
:103400000861606A401C6062608D401E60851AE041
:10341000608DC0B9212D16D12068406820F4E0608D
:10342000216848602068006840F4007021680860E6
:1034300000202063202084F83D00002084F83E0016
:103440002046FDF775FD70BD2DE9F84304460F4693
:1034500015469946DDE908862068006840F48060DA
:10346000216808602068006840F480702168086066
:10347000434600224FF001112046009600F090FADA
:1034800060B12068006800F48070B0F5807F02D1E0
:103490004FF4007020640320BDE8F88307F0FE00BD
:1034A00021680861334642463E49204600F0BBFA97
:1034B00008B10120F0E700BF0020009020684069BB
:1034C000009020688069009000BF00BF32464146EE
:1034D000204600F073FB50B1206C042805D1206811
:1034E000006840F40070216808600120D4E7B9F159
:1034F000010F03D1E8B22168086117E0C5F3072086
:103500002168086132464146204600F057FB50B121
:10351000206C042805D12068006840F40070216800
:1035200008600120B8E7E8B22168086132464146E8
:10353000204600F043FB50B1206C042805D12068E0
:10354000006840F40070216808600120A4E720684A
:10355000006840F4807021680860434600224FF004
:1035600001112046009600F01BFA58B1206800684F
:1035700000F48070B0F5807F02D14FF400702064B9
:10358000032089E7F8B240F0010021680861334662
:1035900042460449204600F046FA08B101207BE784
:1035A000002079E7020001002DE9F843044688462F
:1035B00015469946DDE908672068006840F4807088
:1035C00021680860334600224FF001112046009721
:1035D00000F0E6F960B12068006800F48070B0F592
:1035E000807F02D14FF4007020640320BDE8F8838F
:1035F00008F0FE00216808613B463246214920461A
:1036000000F011FA08B10120F0E700BF002000909F
:1036100020684069009020688069009000BF00BF6A
:103620003A463146204600F0C9FA50B1206C0428D1
:1036300005D12068006840F400702168086001200E
:10364000D4E7B9F1010F03D1E8B22168086117E0AE
:10365000C5F30720216808613A463146204600F04C
:10366000ADFA50B1206C042805D12068006840F400
:103670000070216808600120B8E7E8B2216808619D
:103680000020B3E702000100418D49B101680969DA
:10369000426A1170416A491C4162418D491E41854F
:1036A000704770B5044694F83D50608DD8B12068DD
:1036B0000069616A0870606A401C6062608D401E2B
:1036C0006085608D78B92A2D0DD12068406820F47E
:1036D00080602168486022202063282084F83D0013
:1036E0002046FDF7F5FF70BD418D49B1416A09786B
:1036F00002681161416A491C4162418D491E418540
:10370000704770B5044694F83D50608DD8B1606A3A
:10371000007821680861606A401C6062608D401E0C
:103720006085608D78B9292D0DD12068406820F41E
:1037300080602168486021202063282084F83D00B3
:103740002046FDF7C6FF70BDF8B504460D460027BC
:1037500094F83D0000F0280028281CD1206840681B
:1037600020F4806021684860C5F3800000B901271B
:10377000C5F3C01010B9A08986B201E0208B86B2D3
:1037800000BF002084F83C0000BF32463946204686
:10379000FDF7F3F90FE000BF0020009020684069BA
:1037A000009020688069009000BF00BF00BF00202B
:1037B00084F83C0000BFF8BD38B5044694F83D508D
:1037C0002068406820F4E0602168486000BF002065
:1037D00000902068406900902068006840F0010077
:1037E0002168086000BF00BF2068006820F4806086
:1037F000216808602068406800F40060B0F5006F40
:1038000042D1222D01D02A2D1FD1A06B0068406823
:103810006085608D18B1206C40F004002064206841
:10382000406820F4006021684860A06BFCF7CEFF80
:10383000012829D04148A16B4863A06BFCF7F2FE38
:1038400010B3A06B416B88471EE0606B0068406856
:103850006085608D18B1206C40F004002064206801
:10386000406820F4006021684860606BFCF7AEFFA0
:10387000012809D03148616B4863606BFCF7D2FEC8
:1038800010B1606B416B8847608D18B32068406948
:10389000C0F3800048B120680069616A0870606AFE
:1038A000401C6062608D401E608520684069C0F3E6
:1038B000801048B120680069616A0870606A401C25
:1038C0006062608D401E6085608D18B1206C40F094
:1038D00004002064206C18B12046FFF7FDF82BE0AF
:1038E0002A2D07D100202063282084F83D0020469F
:1038F000FDF7EEFE94F83D0028280DD11048E06257
:1039000000202063202084F83D00002084F83E0041
:103910002046FDF709FB0FE0206B222801D0222D65
:103920000AD100202063202084F83D00002084F884
:103930003E002046FDF7CCFE38BD0000E12900081E
:103940000000FFFF70B504460D46164620E02046F5
:10395000FFF798F908B1012070BD681CC0B1FDF7F0
:1039600005F9801BA84200D895B9002020632020CB
:1039700084F83D00002084F83E00206C40F02000D8
:10398000206400BF002084F83C0000BF0120E3E772
:1039900020684069C0F380000028D8D00020DBE711
:1039A0002DE9F04104460D4617461E46DDF8188005
:1039B0001CE0701CD0B1FDF7D9F8A0EB0800B042B4
:1039C00000D89EB900202063202084F83D0000200C
:1039D00084F83E00206C40F02000206400BF0020EE
:1039E00084F83C0000BF0120BDE8F081C5F307402A
:1039F00001280AD120684069A9B20840A9B28842CA
:103A000001D101200BE0002009E020688069A9B203
:103A10000840A9B2884201D1012000E00020B8424C
:103A2000C7D00020E0E72DE9F04104460D461646D8
:103A30001F463DE020684069C0F38020E8B120685F
:103A4000006840F40070216808606FF480602168AD
:103A5000486100202063202084F83D00002084F885
:103A60003E00206C40F00400206400BF002084F879
:103A70003C0000BF0120BDE8F081701CC0B1FDF723
:103A800075F8C01BB04200D896B9002020632020F2
:103A900084F83D00002084F83E00206C40F02000B7
:103AA000206400BF002084F83C0000BF0120E2E752
:103AB000C5F3074001280AD120684069A9B208402F
:103AC000A9B2884201D101200BE0002009E0206862
:103AD0008069A9B20840A9B2884201D1012000E062
:103AE00000200028A6D00020C5E770B504460D468A
:103AF000164632E020684069C0F30010A0B16FF0B4
:103B000010002168486100202063202084F83D00D7
:103B1000002084F83E00206C206400BF002084F860
:103B20003C0000BF012070BDFDF720F8801BA842BB
:103B300000D895B900202063202084F83D000020A3
:103B400084F83E00206C40F02000206400BF00207C
:103B500084F83C0000BF0120E5E720684069C0F31D
:103B600080100028C6D00020DDE7000008B501461F
:103B700000200090104800681922B0FBF2F04FF4CA
:103B80007A72B0FBF2F000EB8000009000BF00986A
:103B9000401E0090009828B9086C40F0200008648E
:103BA000012008BD0868006800F40070B0F5007FCF
:103BB000EDD00020F5E70000B402002070B5044607
:103BC0000D46164620E02046FFF75CF808B10120BC
:103BD00070BD681CC0B1FCF7C9FF801BA84200D8AB
:103BE00095B900202063202084F83D00002084F84F
:103BF0003E00206C40F02000206400BF002084F8CC
:103C00003C0000BF0120E3E720684069C0F3C0101A
:103C10000028D8D00020DBE700B585B00020019057
:103C200002900390049000BF3448806940F0040083
:103C3000324988610846806900F00400009000BFA6
:103C400000BF00BF0846806940F008008861084650
:103C5000806900F00800009000BF00BF00BF084668
:103C6000806940F0100088610846806900F010000B
:103C7000009000BF00BF00BF0846806940F04000D0
:103C800088610846806900F04000009000BF00BFD6
:103C9000002210211A48FCF763FF01222021184856
:103CA000FCF75EFF3020019001200290002003907D
:103CB0000220049001A91248FCF7A0FD4FF4807087
:103CC000019000200290039001A90D48FCF796FD99
:103CD000012001900B4802900020039001A90A489E
:103CE000FCF78CFD0220019000200290039001A9B6
:103CF0000548FCF783FD05B000BD00000010024040
:103D0000000C0140000031100018014010B50B48B4
:103D10000B4908600B484860002109488160C16078
:103D20004FF480410161002141618161C161016203
:103D3000FDF712F808B1FCF746FC10BD0054004036
:103D400054080020801A060010B50B480B49086083
:103D50000B484860002109488160C1604FF48041F0
:103D60000161002141618161C1610162FCF7F4FFE1
:103D700008B1FCF728FC10BD00580040A80800203E
:103D8000801A06001CB50020009001900E480F49D3
:103D9000086040F2CF20486000210C488160632118
:103DA000C16000218161FEF739F908B1FCF70BFC15
:103DB00000200090019069460448FEF7E1F808B140
:103DC000FCF701FC1CBD000000100040FC080020B6
:103DD0001CB50020009001900E480F49086041F684
:103DE0001F40486000210C48816041F28731C1606A
:103DF00000218161FEF712F908B1FCF7E4FB002015
:103E00000090019069460448FEF7BAF808B1FCF743
:103E1000DAFB1CBD001400404409002010B50B481B
:103E20000B4908604FF4E130486000210848816088
:103E3000C16001610C21416100218161C161FEF716
:103E4000F7FB08B1FCF7BFFB10BD0000004C0040C1
:103E5000540A002010B50B480B4908604FF4E130BC
:103E60004860002108488160C16001610C21416106
:103E700000218161C161FEF7DBFB08B1FCF7A3FB08
:103E800010BD000000380140980A002010B50B4812
:103E90000B4908604FF4E130486000210848816018
:103EA000C16001610C21416100218161C161FEF7A6
:103EB000BFFB08B1FCF787FB10BD000000440040C9
:103EC000DC0A002000BFFEE700BFFEE710B50024BB
:103ED00040F6B830FCF77EFC00BF08E01B48011933
:103EE0004FF6FF7301221A48FEF7F8FC641C1748CE
:103EF000005D0028F2D14FF47A70FCF76BFC0024CF
:103F000008E0144801194FF6FF7301221048FEF72C
:103F1000E5FC641C0F48005D0028F2D14FF47A7074
:103F2000FCF758FC002408E00B4801194FF6FF731A
:103F300001220748FEF7D2FC641C0748005D0028F8
:103F4000F2D14FF47A70FCF745FC10BD4900002017
:103F5000DC0A0020C80000203301002070B50024D6
:103F60000FE02146002000F031F9002505E0012195
:103F7000002000F065F9681CC5B2802DF7DB601CDD
:103F8000C4B2082CEDDB70BD10B590B00021AE209E
:103F900000F056F90021084600F052F900211020E7
:103FA00000F04EF90021402000F04AF90021B02035
:103FB00000F046F90021812000F042F90021F020B4
:103FC00000F03EF90021A12000F03AF90021A620DE
:103FD00000F036F90021A82000F032F900213F203E
:103FE00000F02EF90021C82000F02AF90021D3208A
:103FF00000F026F90021084600F022F90021D52022
:1040000000F01EF90021802000F01AF90021D920CB
:1040100000F016F90021F12000F012F90021DA2059
:1040200000F00EF90021122000F00AF90021DB2037
:1040300000F006F90021302000F002F900218D2067
:1040400000F0FEF80021142000F0FAF80021AF2063
:1040500000F0F6F8FFF782FF012000F0AFF93DA372
:104060000FCB0CAC0FC404213A2000F0AFF80024B1
:1040700006E00CA9085D012100F0E2F8601CC4B262
:104080000D2CF6DB37A103C9CDE90A010421792003
:1040900000F09CF8002406E00AA9085D012100F068
:1040A000CFF8601CC4B2062CF6DB24222FA101A895
:1040B000FCF74EF90221492000F088F8002406E0C0
:1040C00001A9085D012100F0BBF8601CC4B20B2CF3
:1040D000F6DB0321492000F079F8002408E004F120
:1040E0000B0101AA505C012100F0AAF8601CC4B2C7
:1040F0000B2CF4DB0421492000F068F8002408E0D0
:1041000004F1160101AA505C012100F099F8601C2D
:10411000C4B20B2CF4DB1EA20021084600F060F8AC
:1041200021A20121002000F05BF821A20121212021
:1041300000F056F820A201213C2000F051F81FA207
:104140000121452000F04CF81F48FCF7F1FE10B0AB
:1041500010BD00003E2838003E0A0E003E021C0240
:104160003E0000006333180C66630000384444448A
:104170008800FC44444438E1121212E1002310107C
:1041800090600708080807000C0A090808000000EA
:1041900043616C6C5F4E6F775F5965616820537443
:1041A0007564696F0000000048656172740000006A
:1041B0005261746500000000260000004F78696DB0
:1041C0006574727900000000A8080020024A10708F
:1041D000024A1170704700001800002019000020EA
:1041E0002DE9F04105460F4614464FF00008002621
:1041F0001EE02078203800F0FF087F2D02DD00252A
:10420000781CC7B239462846FFF7E0FF00260AE0CF
:1042100008EB4801094A02EB4101885D012100F0E9
:104220000FF8701CC6B2062EF2DBA81DC5B2641CC6
:1042300020780028DDD1BDE8F08100006E63000821
:1042400013B584B00C4664B93220012104AA0B4690
:10425000CDE900210290002278210A48FDF796F866
:104260000EE09DF810000849084A127801EBC211CF
:10427000074A1278885406480078401C04490870A0
:1042800006B010BDA808002052040020190000202C
:10429000180000202DE9F14F84B043A0006802907F
:1042A000049801F03DFD0746404A414B01F00EFBEA
:1042B000CDE9000101F0A0FA0A30C6B2172E00DDE8
:1042C0001726002E00DC00263A480178304600F020
:1042D00003FE814637480178304601F079F80546FB
:1042E000A94502D1681C00F0FF09002420E0A5EBDD
:1042F000C400002809D402A8005DA5EBC401084150
:1043000002A9095D084002A90855601CC9EBC0005C
:1043100000280BD402A8015D601CC9EBC00001FAA3
:1043200000F002A9095D084002A90855601CC4B24A
:10433000032CDCDB002425E0C4F10700C1B21E48D9
:104340000078FFF743FF02A9085D0121FFF778FF1E
:1043500019480078C0F17F0000F0FF0BBBF1030F9C
:1043600001DD4FF0030B4FF0000A07E001210020B0
:10437000FFF766FF0AF1010000F0FF0ADA45F5DBFE
:10438000601CC4B2032CD7DB0A4806700A480078C8
:10439000401C09490870084600787F2801DD00208C
:1043A000087005B0BDE8F08FFFFFFF00B81E85EB79
:1043B00051B8BE3F1C0000201B00002070B5054610
:1043C00002210120FFF702FF002D2DD0002406E07E
:1043D0002949085D0121FFF733FF601CC4B2152C89
:1043E000F6DB03210120FFF7F1FE002408E004F1D1
:1043F0001501214A505C0121FFF722FF601CC4B265
:10440000152CF4DB04210120FFF7E0FE002408E076
:1044100004F12A01184A505C0121FFF711FF601CCA
:10442000C4B2152CF4DB25E0002405E001210020B6
:10443000FFF706FF601CC4B2152CF7DB0321012037
:10444000FFF7C4FE002405E001210020FFF7F8FE7D
:10445000601CC4B2152CF7DB04210120FFF7B6FE67
:10446000002405E001210020FFF7EAFE601CC4B231
:10447000152CF7DB70BD0000966500082DE9F047AC
:1044800007468846414810F80860414810F80790F0
:1044900002214846FFF79AFE00241DE00025012C6A
:1044A00005DC06F0200088B145F0F8050EE0022C8E
:1044B00007DB072C05DC06F0010038B145F00605E6
:1044C00004E006F0020008B145F0F8050121284695
:1044D000FFF7B6FE601CC4B20A2CDFDB032148469E
:1044E000FFF774FE002427E00025012C0ADC06F00B
:1044F000200008B145F0030506F01000B0B145F00A
:10450000F00513E0022C07DB072C05DC06F0400069
:1045100060B145F00C0509E006F0020008B145F075
:10452000030506F0040008B145F0F0050121284616
:10453000FFF786FE601CC4B20A2CD5DB0421484676
:10454000FFF744FE00241DE00025012C05DC06F0E9
:10455000100088B145F007050EE0022C07DB072CA0
:1045600005DC06F0080038B145F0180504E006F057
:10457000040008B145F0070501212846FFF760FE59
:10458000601CC4B20A2CDFDBBDE8F087D5650008EB
:10459000E06500087047000070B505460E4600242F
:1045A00000BF08E02A4801194FF6FF73012229488D
:1045B000FEF794F9641C2648005D0028F2D100241F
:1045C00008E0254801194FF6FF7301222148FEF744
:1045D00085F9641C2048005D0028F2D129461FA0FF
:1045E000FBF73AFE002408E01D4801194FF6FF735F
:1045F00001221848FEF772F9641C1948005D002872
:10460000F2D1314615A0FBF727FE002408E015483B
:1046100001194FF6FF7301220E48FEF75FF9641C83
:104620001048005D0028F2D10FA0FBF715FE002412
:1046300008E00F4801194FF6FF7301220548FEF705
:104640004DF9641C0A48005D0028F2D170BD0000DD
:104650007D010020DC0A0020E30100202564000029
:10466000F3010020FF01002033362E35000000004A
:104670000F02002008B508490968C9084FF47A728A
:10468000B1FBF2F14143009100BF00BF00994A1E07
:1046900000920029F9D108BDB4020020704710B57E
:1046A000FDF718F810BD00B58FB0282105A8FBF75D
:1046B000A3FE14216846FBF79FFE0120059000042D
:1046C0000690002007900120099002200C90C10361
:1046D0000D914FF4E0110E9105A8FDF703FA08B112
:1046E000FBF771FF0F200090022001900020029044
:1046F0004FF4806003900020049002216846FDF78B
:10470000BBF808B1FBF75FFF0FB000BD70470000BA
:1047100010B50248FDF73DFD10BD0000FC0800206B
:1047200010B50248FDF735FD10BD0000440900201A
:1047300010B50268204B98420ED0204B98420BD007
:10474000B0F1804F08D01E4B984205D01D4B9842C7
:1047500002D01D4B984203D122F070024B681A43DD
:10476000154B98420ED0154B98420BD0B0F1804FAC
:1047700008D0134B984205D0124B984202D0124BEE
:10478000984203D122F44072CB681A4322F080038E
:104790004C6943EA040202608B68C3620B6883625F
:1047A000054B984202D0054B984201D10B69036337
:1047B0000123436110BD0000002C01400034014082
:1047C0000004004000080040000C004010B5024802
:1047D000FDF708FE10BD0000540A002070B5054624
:1047E0006C6A0020E085E0842046FDF7F9FD70BD8D
:1047F0000168C96821F490710268D1600168496953
:1048000021F0010102685161016B012905D10168A4
:10481000C96821F010010268D160202180F83E10A3
:1048200000210163704710B504462068C06820F07D
:1048300040002168C860202084F83D002046FEF733
:10484000B6F8002010BDF8B5044694F83E002228C2
:1048500069D1A068B0F5805F0CD1206950B90025FE
:10486000A66A20684068C0F308003080A06A801CF7
:10487000A06215E0A56A0026A068B0F5805F03D0AD
:10488000A06828B9206918B920684068287004E039
:104890002068406800F07F002870A06A401CA06279
:1048A000E08D401E80B2E085A8BB2068C06820F083
:1048B00020002168C8602068C06820F480702168EA
:1048C000C8602068406920F001002168486120200C
:1048D00084F83E00206B01281ED100202063206850
:1048E000C06820F010002168C8602068006800F0EF
:1048F000100010280AD100BF002000902068006836
:10490000009020684068009000BF00BFA18D204645
:10491000FDF765FD03E004E02046FDF7A5FF00205C
:10492000F8BD0020FCE70220FAE7000070B504465D
:104930002168096921F44051E2681143226811613C
:104940002269A1681143626941EA02052168C968C8
:1049500041F20C62914329432268D1602168496980
:1049600021F44071A2691143226851612D4A2168E6
:10497000914202D1FDF75CF801E0FDF749F800EB48
:10498000C00101EB001162689200B1FBF2F100EB93
:10499000C00202EB001263689B00B2FBF3F26423D7
:1049A000B2FBF3F202EBC20303EB0212A1EB8201B2
:1049B000322202EB01116422B1FBF2F101F0F001AD
:1049C00000EBC00202EB001263689B00B2FBF3F243
:1049D0006423B2FBF3F201EB021200EBC00101EB26
:1049E000001163689B00B1FBF3F100EBC00303EB24
:1049F00000136668B600B3FBF6F36426B3FBF6F368
:104A000003EBC30606EB0313A1EB8301322303EB95
:104A100001116423B1FBF3F101F00F01114422688D
:104A2000916070BD0038014010B5034699629A85C7
:104A3000DA8500201864222083F83E0000BF0020A1
:104A400083F83C0000BF1868C06840F480701C68A0
:104A5000E0601868406940F001001C6860611868F7
:104A6000C06840F020001C68E060002010BD0146D6
:104A700091F83D00212828D18868B0F5805F0BD1DE
:104A8000086948B90A6A1088C0F308000B685860C2
:104A9000086A801C086205E00B6A581C08621878D6
:104AA0000B685860C88C401E80B2C88458B908682A
:104AB000C06820F080000B68D8600868C06840F0CB
:104AC00040000B68D860002070470220FCE72DE909
:104AD000F04104460D4617469846069E21E0701C9C
:104AE000F8B12EB1FCF742F8A0EB0800B04218D99B
:104AF0002068C06820F4D0702168C86020684069D0
:104B000020F0010021684861202084F83D0084F8ED
:104B10003E0000BF002084F83C0000BF0320BDE839
:104B2000F081206800682840A84201D1012000E0FF
:104B30000020B842D3D00020F1E7000010B50E48A5
:104B4000FDF750FC0D480078C82802D100200B4921
:104B500008700B480178094802780078401C074B20
:104B6000187008488154012007490870012204493F
:104B70000148FDF757FE10BDDC0A0020A00200200E
:104B8000A10200208C090020A202002000BFFEE745
:104B900002480068C0F30220704700000CED00E0FE
:104BA00010B5002804DB0A07130E054A135406E06B
:104BB0000A07140E034A00F00F031B1FD45410BD44
:104BC00000E400E018ED00E000BF704703B53120BD
:104BD0000EE0411E0A4A52F8311042F83010411ED0
:104BE00002EBC101496802EBC0025160411EC8B22C
:104BF0000028EEDC024A00991160019951600CBD59
:104C0000B80200202DE9F04105460E4617469C46A5
:104C1000DFF8AC80D8F80010D8F80020D8F80430BD
:104C2000D8F80440002033E0DFF8948058F8308052
:104C3000884503D9DFF8888058F83010DFF8808085
:104C400058F83080904503D2DFF8748058F830204F
:104C5000DFF86C8008EBC008D8F80480984505D9C7
:104C6000DFF85C8008EBC008D8F80430DFF850802B
:104C700008EBC008D8F80480A04505D2DFF84080D2
:104C800008EBC008D8F8044000F1010808F0FF0064
:104C90003228C9DBA1EB0208A5F8008001EB02086D
:104CA0004FEA5808C6F80080A3EB0408A7F8008074
:104CB00003EB04084FEA5808CCF80080BDE8F08107
:104CC000B802002010B50023002200210AE00B4C9E
:104CD00054F831402344094C04EBC1046468224475
:104CE0004C1CE1B20729F2DB04681C44E4080460B0
:104CF00044681444E408446010BD0000B802002079
:104D000013B50C464FF6FF73012269460248FDF7C2
:104D1000E5FD00981CBD0000DC0A0020FCF7E6FC65
:104D2000FFF7C1FCFEF778FFFEF7F0FFFFF792F800
:104D3000FFF70AF8FFF7AAF8FFF74AF8FFF722F89B
:104D4000FFF76CF8C820FBF745FDFFF71DF900F0F1
:104D50009FFA5848FDF7D4F95748FDF7D1F90122D9
:104D600056495748FDF75EFD012256495648FDF762
:104D700059FDFFF7ABF800BF9AE00122202153480C
:104D8000FBF7EEFE524800784FF47A7190FBF1F297
:104D900001FB1200642190FBF1F0002810DD4C486B
:104DA00000784FF47A7190FBF1F201FB120064215C
:104DB00090FBF1F0C5B229460020FFF75FFB03E04E
:104DC0000A210020FFF75AFB41480078642190FB3C
:104DD000F1F201FB12000A2190FBF1F0C5B2294665
:104DE0000120FFF74BFB3A4800780A2190FBF1F2D3
:104DF00001FB1200C5B229460220FFF73FFB3548F0
:104E000000784FF47A7190FBF1F201FB12006421FB
:104E100090FBF1F0002810DD2E4800784FF47A71F5
:104E200090FBF1F201FB1200642190FBF1F0C5B29E
:104E300029460320FFF722FB03E00A210320FFF7A6
:104E40001DFB24480078642190FBF1F201FB120065
:104E50000A2190FBF1F0C5B229460420FFF70EFBB2
:104E60001C4800780A2190FBF1F201FB1200C5B248
:104E700029460520FFF702FB00F044F904462046CE
:104E800001F0CAF80546FFF705FA322C03DD0020D1
:104E9000FFF794FA02E00120FFF790FA0A20FBF7EF
:104EA00099FC0C4801780A480078FFF775FB00BFB1
:104EB00063E70000FC08002044090020A102002054
:104EC000DC0A00209C020020540A0020000C014053
:104ED000950200209402002002468A4201DD10461D
:104EE00070470846FCE700002DE9F04F8DB000F058
:104EF00099F98146494602A800F00AF90024D2E057
:104F000002A800EBC400406849F64041884207D23D
:104F10000020684908706849087068490880C0E046
:104F200002A800EBC402D2E90001FFF74FFE644B78
:104F3000644A65496548FFF765FE02A901EBC400B4
:104F4000FFF7C0FE5E48006801F07EF882465D48CB
:104F5000008801F079F88346514600F07BFF074650
:104F60005948006801F070F882465848008801F0FE
:104F70006BF88346514600F06DFF8046394600F0DD
:104F800069FF0646304600F0CBFE0746504A514BBB
:104F900000F09AFD16D8304600F0C2FE07464E4A91
:104FA0004E4B00F057FC0DD231464D4801F094F8BD
:104FB00080464C4901F05CF9074601F00DF83E4986
:104FC00008701FE0304600F0ABFE0746424A434BF4
:104FD00000F07AFD16D84FF07E51304601F048F8C7
:104FE00010D23146404801F077F8019000F098FE69
:104FF00007463E4A3E4B00F09DFD824600F0FCFB1A
:105000002D49087002A800EBC4008088394909883E
:10501000081A00B2294908800846B0F90000322871
:1050200033DD354800780C282FDD092505E0601EAA
:105030003249085C0855681EC5B2002DF7DC2E48C1
:1050400000782E4908704FF0000A002504E02B4834
:10505000005D8244681CC5B20A2DF8DB504600F0A2
:10506000F3FF834600F05CFE02460B46CDE90001EB
:105070000020234900F068FA074600F0BDFB0D4907
:10508000087000201C49087000BF02A800EBC40093
:1050900040681849086018480078401C1649087094
:1050A00000BF601CC4B24C45FFF62AAF0DB0BDE88E
:1050B000F08F000000000020010000201000002000
:1050C0000C00002008000020040000200200002046
:1050D0000AD7A3703D0AD73F1F85EB51B81EE53FA5
:1050E0000000A0410000D6420000584214AE47E143
:1050F0007A34604014000020120000204804002090
:10510000004CDD400148B0F900007047100000205D
:1051100070B58CB006460D46052D00DD052519211C
:1051200005EB4500400004AA0123CDE900200291CF
:105130000722AF212148FBF777FF00243AE004EB78
:10514000440004A911F81000000404EB44010122FA
:1051500002EB410104AA515C40EA012004EB440146
:10516000022202EB410104AA515C0843C0F3110082
:1051700046F8340004EB4400032101EB400004A98D
:10518000085C000404EB4401042202EB410104AA80
:10519000515C40EA012004EB4401052202EB41018D
:1051A00004AA515C0843C0F3110006EBC401486037
:1051B000601CC4B2AC42C2DB0CB070BD540800200D
:1051C0000148007870470000000000200148007886
:1051D00070470000010000201FB50024002003904C
:1051E0000A20012103AA0B46CDE9002102900022EA
:1051F000AF210B48FBF718FF9DF80C400A20012156
:1052000003AA0B46CDE9002102900A46AF210448CB
:10521000FBF70AFF9DF80C1044EA010004B010BD32
:105220005408002000B585B00020049003900A20A7
:10523000012104AA0B46CDE9002102900422AF21EE
:105240001248FBF7F1FE0A20012103AA0B46CDE923
:10525000002102900622AF210C48FBF7E5FE9DF8E5
:1052600010009DF80C10401A08D59DF810009DF80C
:105270000C10401A2030C0B205B000BD9DF81000DF
:105280009DF80C10401AC0B2F6E700005408002048
:105290001FB500200390402003900A20012103AA9B
:1052A0000B46CDE9002102900922AE214748FCF7C8
:1052B0006DF800BF0A20012103AA0B46CDE90021A9
:1052C00002900922AF214148FBF7AEFE9DF80C0089
:1052D00000F040000028EDD1402003900A20012179
:1052E00003AA0B46CDE9002102900222AE213748E5
:1052F000FCF74CF8632003900A20012103AA0B4617
:10530000CDE9002102900246AE213048FCF73EF87C
:10531000472003900A20012103AA0B46CDE9002172
:1053200002900C22AE212948FCF730F80A20012116
:1053300003AA0B46CDE9002102900D22AE2123489D
:10534000FCF724F80A20012103AA0B46CDE900212D
:1053500002901022AE211D48FCF718F8002003909F
:105360000A20012103AA0B46CDE900210290042264
:10537000AE211648FCF70AF80A20012103AA0B46C1
:10538000CDE9002102900522AE211048FBF7FEFF77
:105390000A20012103AA0B46CDE900210290062232
:1053A000AE210A48FBF7F2FFFFF716FF0320039038
:1053B0000A20012103AA0B46CDE90021029009220F
:1053C000AE210248FBF7E2FF1FBD00005408002099
:1053D00002468A4201DA104670470846FCE70000A0
:1053E00010B591EA030F48BF83F0004300F1B68384
:1053F000841A71EB030C05D2121943EB0C03001B4A
:1054000061EB0C01DFF824E14FEA1154A4EB135CCB
:105410001EEA430F18BF9EEA445F73D023EA0E03CF
:10542000DCF1200E21EA045143F4801332D322FA36
:105430000CFE10EB0E0023FA0CFE41EB0E01CCF13A
:10544000200E03FA0EFE10EB0E0051F10001B1F533
:10545000801FCCF1200E32D201EB045112FA0EF271
:10546000BDE8104058BF7047401C38BF5FEA420299
:1054700018BF7047002814BF20F0010041F100015F
:105480004FEA410313F5001F38BF7047A1F1C04137
:1054900000F014BB012A43EB0302ACF1200CDCF159
:1054A0001F0E32BF4FF0000E23FA0CF310EB030077
:1054B00041EB0451B4EB115FD0D0A1EB045101F5E5
:1054C000801149085FEA300001EB04510ED350F11E
:1054D000000038BF12FA0EFE08D1BDE81040C9E73F
:1054E000401C38BF5FEA4202CAD1C3E7BDE81040A2
:1054F0004FEA410313F5001F38BF7047A1F1C041C7
:1055000000F0DCBA9EEA445F08D011EA5E0FBDE805
:10551000104004BF01F0004100207047BDE810407A
:1055200070B500F07DFA00BF64FBBE3E0000E0FFF6
:10553000491058BFC1F140415B1058BFC3F140430F
:105540008B42EFF3008070472DE9C04130B4DFF8A3
:10555000A0C23CEA111418BF3CEA131400F0EC801E
:1055600081EA03051CEA111444EAD57418BF1CEA49
:10557000131500F0C780A4EB05044FF0004545EA81
:10558000C12145EAC32341EA505143EA525304F191
:105590007F74994204F500344FEAC0204FEAC222DA
:1055A00008BF904200F09C804FEA13650FF240164E
:1055B000765D4FEA134506FB05F7C7F1807706FBDA
:1055C00007F74FEAD737A7FB03687642C8F580385C
:1055D000A7FB06CE38BFA8F1010807FB08E64FF08D
:1055E000000EA6FB028CE6FB03CEDCF1000CCEF134
:1055F000004E38BFAEF1010EA6FB0C584FF000076D
:105600004FF00005E6FB0E87A1FB08C6A0FB07CE06
:1056100016EB0E0645F10005E1FB076515F1E04EBE
:105620007EBFA4F580345FEA46066D4116F180071F
:1056300045F100054FEA17274FEA066647EA056776
:10564000A6F1DE46B6F1805F4FEA15251FD9384630
:1056500024F0010C05EBC471BCF1FE6F01EB0C11E1
:1056600002D8F0BCBDE8008124425CBF01F5801E79
:105670009EEAC47F02D4F0BCBDE80081244238D445
:10568000F0BCA1F1C041BDE8004100F017BA4FEAFB
:10569000D22242EA43524FEAD323A7FB02864FEAC3
:1056A000D02040EA415007FB03661EEA0E0F4FEA86
:1056B000D12105FB026658BFA6EB0056B6EB00569B
:1056C0004FEA520E4EEAC37E18EB0E0E56EB530E07
:1056D000BDD518EB02085E417F1C55F10005B6E709
:1056E0004FF480154FF000074FF000064FF0000810
:1056F000ADE7F0BC4FF0000001F1C04101F0004106
:10570000BDE8008111EA0C1F0CEA131500D00CE073
:1057100013EA0C1F00F025804FF00000F0BC81EA76
:10572000030101F00041BDE80081F0BCBDE800418B
:1057300081EA030100F0C2B9F0BCBDE8004170B5D8
:1057400000F06EF9097EFC3E00F007B881EA030123
:105750004FF0000001F00041704781EA030100F0C2
:10576000ADB9F0BCBDE800414FF0000021497047E1
:10577000FFFDFBF9F7F5F4F2F0EEEDEBE9E8E6E416
:10578000E3E1E0DEDDDBDAD8D7D5D4D3D1D0CFCD9D
:10579000CCCBCAC8C7C6C5C4C2C1C0BFBEBDBCBBD6
:1057A000BAB9B8B7B6B5B4B3B2B1B0AFAEADACABD1
:1057B000AAA9A8A8A7A6A5A4A3A3A2A1A09F9F9EAB
:1057C0009D9C9C9B9A99999897979695959493935D
:1057D000929191908F8F8E8E8D8C8C8B8B8A8989F4
:1057E0008888878786858584848383828281818077
:1057F0000000FF070000F87F4FEA1153A3F5806314
:10580000D3F11E03A8BFD3F1200C08DB4FF00042F8
:1058100042EAC12252EA505232FA03F0704709427A
:105820000BD4102BC4BF0020704703F5787CBCF16B
:10583000FF3F05D04FF0FF3070474FF0000070473A
:1058400070B500F0EDF800BF499224800020704749
:10585000F0E7000051EA030C17D41CF5801F58BF75
:10586000BCF5801F00F10680994218BF704708BF41
:105870009042704707D711F5801F58BF13F5801F5E
:1058800019D499427047894270471CF5801F08D58A
:10589000BCF5801FF7D58B4218BF704708BF824206
:1058A00070474FF4001C1CEB410F38BF1CEB430F3B
:1058B00001D28B42704770B500F0B2F892244900D3
:1058C0004FF000514FF08053FFF732BEDFF848C170
:1058D00070B51CEA111E1EBF1CEA13159EEA0C0FC0
:1058E00095EA0C0F00F06F8081EA030423EA4C1361
:1058F0004EEAD47E21EA4C1141F4801143F4801326
:10590000AE44A1FB024CA0FB0365AEF17F7E3619CD
:1059100055EB0C05A1FB034C4CF10003A0FB021C52
:1059200016EB0C06654153F10003094218BF46F01F
:10593000010613F4007F0BD14FEA03314FEA053023
:10594000340341EA155140EA16506FF003020AE0B1
:105950004FEAC3214FEAC520F40241EA555140EA1B
:1059600056506FF0020202EB2E4201EB025585EA1F
:10597000CE710AD05FEA440C18BF24F0004450F105
:10598000000041F1000120EAD47040F2FE7C624543
:1059900000D270BDA84214BF4FF080444FF0404485
:1059A000002E08BF0024BEF1806FA8BFA1F1C04146
:1059B000BDE8704080F282804FF0000001F1C041EC
:1059C00001F0004170479EEA0C0F0CEA131518BF56
:1059D00095EA0C0F06D04FF0000081EA030E0EF09E
:1059E000004170BD00F01CF88900013E00F007B8CE
:1059F00000F009B84FEA430C5FEA5C5C08D081EA2A
:105A0000030100F05BB84FEA410C5FEA5C5CF6D141
:105A10004FF00000014970470000FF070000F87FC9
:105A20000EF1020E2EF0030E5EF8046B364205D422
:105A3000012A43EB030515F5001F12D8012841EB9D
:105A4000010C1CF5001F0CD80ED14FEAD17C15F5C6
:105A5000001F0CEB4C0C0CF1020C08BF4CEBD37C80
:105A600004E04FF0080C01E04FEAD37C0CEB4C054E
:105A700026FA05F606F00706B6F1040C06D20EEB80
:105A8000860CBDE870404CF0010C6047DFE80CF07C
:105A9000090B02024FF000414FF00000A1F5002178
:105AA00070BD19461046012851EB010418BFD4F50A
:105AB000001484BF002001F0004170BD0808A0F56B
:105AC00000114FEA3101704753EA010C17D41CF55D
:105AD000801F58BFBCF5801F00F106808B4218BFA5
